{
  "contractName": "CarNFTRegistry",
  "abi": [
    {
      "anonymous": false,
      "inputs": [
        {
          "indexed": false,
          "internalType": "uint256",
          "name": "carId",
          "type": "uint256"
        },
        {
          "indexed": false,
          "internalType": "string",
          "name": "carNumber",
          "type": "string"
        },
        {
          "indexed": false,
          "internalType": "string",
          "name": "manufactureDate",
          "type": "string"
        },
        {
          "indexed": false,
          "internalType": "string",
          "name": "model",
          "type": "string"
        },
        {
          "indexed": true,
          "internalType": "address",
          "name": "owner",
          "type": "address"
        }
      ],
      "name": "CarRegistered",
      "type": "event"
    },
    {
      "inputs": [
        {
          "internalType": "uint256",
          "name": "",
          "type": "uint256"
        }
      ],
      "name": "carToOwner",
      "outputs": [
        {
          "internalType": "address",
          "name": "",
          "type": "address"
        }
      ],
      "stateMutability": "view",
      "type": "function",
      "constant": true
    },
    {
      "inputs": [
        {
          "internalType": "uint256",
          "name": "",
          "type": "uint256"
        }
      ],
      "name": "cars",
      "outputs": [
        {
          "internalType": "string",
          "name": "carNumber",
          "type": "string"
        },
        {
          "internalType": "string",
          "name": "manufactureDate",
          "type": "string"
        },
        {
          "internalType": "string",
          "name": "model",
          "type": "string"
        },
        {
          "internalType": "address",
          "name": "owner",
          "type": "address"
        }
      ],
      "stateMutability": "view",
      "type": "function",
      "constant": true
    },
    {
      "inputs": [
        {
          "internalType": "address",
          "name": "",
          "type": "address"
        },
        {
          "internalType": "uint256",
          "name": "",
          "type": "uint256"
        }
      ],
      "name": "ownerToCars",
      "outputs": [
        {
          "internalType": "uint256",
          "name": "",
          "type": "uint256"
        }
      ],
      "stateMutability": "view",
      "type": "function",
      "constant": true
    },
    {
      "inputs": [
        {
          "internalType": "string",
          "name": "_carNumber",
          "type": "string"
        },
        {
          "internalType": "string",
          "name": "_manufactureDate",
          "type": "string"
        },
        {
          "internalType": "string",
          "name": "_model",
          "type": "string"
        }
      ],
      "name": "registerCar",
      "outputs": [],
      "stateMutability": "nonpayable",
      "type": "function"
    },
    {
      "inputs": [
        {
          "internalType": "uint256",
          "name": "_carId",
          "type": "uint256"
        }
      ],
      "name": "getCar",
      "outputs": [
        {
          "internalType": "string",
          "name": "",
          "type": "string"
        },
        {
          "internalType": "string",
          "name": "",
          "type": "string"
        },
        {
          "internalType": "string",
          "name": "",
          "type": "string"
        },
        {
          "internalType": "address",
          "name": "",
          "type": "address"
        }
      ],
      "stateMutability": "view",
      "type": "function",
      "constant": true
    },
    {
      "inputs": [
        {
          "internalType": "address",
          "name": "_owner",
          "type": "address"
        }
      ],
      "name": "getCarsByOwner",
      "outputs": [
        {
          "internalType": "uint256[]",
          "name": "",
          "type": "uint256[]"
        }
      ],
      "stateMutability": "view",
      "type": "function",
      "constant": true
    },
    {
      "inputs": [],
      "name": "getTotalCars",
      "outputs": [
        {
          "internalType": "uint256",
          "name": "",
          "type": "uint256"
        }
      ],
      "stateMutability": "view",
      "type": "function",
      "constant": true
    }
  ],
  "bytecode": "0x608060405234801561000f575f80fd5b506112938061001d5f395ff3fe608060405234801561000f575f80fd5b506004361061007b575f3560e01c80638c61291e116100595780638c61291e14610100578063ae0697e014610130578063c75bb4f41461014c578063f7746e361461017c5761007b565b806316223a3e1461007f57806333ca504b1461009d5780635e8be190146100cd575b5f80fd5b6100876101af565b6040516100949190610954565b60405180910390f35b6100b760048036038101906100b291906109a8565b6101ba565b6040516100c49190610a12565b60405180910390f35b6100e760048036038101906100e291906109a8565b6101ea565b6040516100f79493929190610ab5565b60405180910390f35b61011a60048036038101906101159190610b37565b61048a565b6040516101279190610954565b60405180910390f35b61014a60048036038101906101459190610ca1565b6104b5565b005b61016660048036038101906101619190610d45565b6106be565b6040516101739190610e27565b60405180910390f35b610196600480360381019061019191906109a8565b610751565b6040516101a69493929190610ab5565b60405180910390f35b5f8080549050905090565b6001602052805f5260405f205f915054906101000a900473ffffffffffffffffffffffffffffffffffffffff1681565b60608060605f80805490508510610236576040517f08c379a000000000000000000000000000000000000000000000000000000000815260040161022d90610e91565b60405180910390fd5b5f80868154811061024a57610249610eaf565b5b905f5260205f2090600402016040518060800160405290815f8201805461027090610f09565b80601f016020809104026020016040519081016040528092919081815260200182805461029c90610f09565b80156102e75780601f106102be576101008083540402835291602001916102e7565b820191905f5260205f20905b8154815290600101906020018083116102ca57829003601f168201915b5050505050815260200160018201805461030090610f09565b80601f016020809104026020016040519081016040528092919081815260200182805461032c90610f09565b80156103775780601f1061034e57610100808354040283529160200191610377565b820191905f5260205f20905b81548152906001019060200180831161035a57829003601f168201915b5050505050815260200160028201805461039090610f09565b80601f01602080910402602001604051908101604052809291908181526020018280546103bc90610f09565b80156104075780601f106103de57610100808354040283529160200191610407565b820191905f5260205f20905b8154815290600101906020018083116103ea57829003601f168201915b50505050508152602001600382015f9054906101000a900473ffffffffffffffffffffffffffffffffffffffff1673ffffffffffffffffffffffffffffffffffffffff1673ffffffffffffffffffffffffffffffffffffffff16815250509050805f01518160200151826040015183606001519450945094509450509193509193565b6002602052815f5260405f2081815481106104a3575f80fd5b905f5260205f20015f91509150505481565b5f60405180608001604052808581526020018481526020018381526020013373ffffffffffffffffffffffffffffffffffffffff1681525090505f81908060018154018082558091505060019003905f5260205f2090600402015f909190919091505f820151815f01908161052a91906110d6565b50602082015181600101908161054091906110d6565b50604082015181600201908161055691906110d6565b506060820151816003015f6101000a81548173ffffffffffffffffffffffffffffffffffffffff021916908373ffffffffffffffffffffffffffffffffffffffff16021790555050505f60015f805490506105b191906111d2565b90503360015f8381526020019081526020015f205f6101000a81548173ffffffffffffffffffffffffffffffffffffffff021916908373ffffffffffffffffffffffffffffffffffffffff16021790555060025f3373ffffffffffffffffffffffffffffffffffffffff1673ffffffffffffffffffffffffffffffffffffffff1681526020019081526020015f2081908060018154018082558091505060019003905f5260205f20015f90919091909150553373ffffffffffffffffffffffffffffffffffffffff167fd8c9233a0a5e845b1130af81b91e2e113fb7e5470115ef037923334f4e302649828787876040516106af9493929190611205565b60405180910390a25050505050565b606060025f8373ffffffffffffffffffffffffffffffffffffffff1673ffffffffffffffffffffffffffffffffffffffff1681526020019081526020015f2080548060200260200160405190810160405280929190818152602001828054801561074557602002820191905f5260205f20905b815481526020019060010190808311610731575b50505050509050919050565b5f818154811061075f575f80fd5b905f5260205f2090600402015f91509050805f01805461077e90610f09565b80601f01602080910402602001604051908101604052809291908181526020018280546107aa90610f09565b80156107f55780601f106107cc576101008083540402835291602001916107f5565b820191905f5260205f20905b8154815290600101906020018083116107d857829003601f168201915b50505050509080600101805461080a90610f09565b80601f016020809104026020016040519081016040528092919081815260200182805461083690610f09565b80156108815780601f1061085857610100808354040283529160200191610881565b820191905f5260205f20905b81548152906001019060200180831161086457829003601f168201915b50505050509080600201805461089690610f09565b80601f01602080910402602001604051908101604052809291908181526020018280546108c290610f09565b801561090d5780601f106108e45761010080835404028352916020019161090d565b820191905f5260205f20905b8154815290600101906020018083116108f057829003601f168201915b505050505090806003015f9054906101000a900473ffffffffffffffffffffffffffffffffffffffff16905084565b5f819050919050565b61094e8161093c565b82525050565b5f6020820190506109675f830184610945565b92915050565b5f604051905090565b5f80fd5b5f80fd5b6109878161093c565b8114610991575f80fd5b50565b5f813590506109a28161097e565b92915050565b5f602082840312156109bd576109bc610976565b5b5f6109ca84828501610994565b91505092915050565b5f73ffffffffffffffffffffffffffffffffffffffff82169050919050565b5f6109fc826109d3565b9050919050565b610a0c816109f2565b82525050565b5f602082019050610a255f830184610a03565b92915050565b5f81519050919050565b5f82825260208201905092915050565b5f5b83811015610a62578082015181840152602081019050610a47565b5f8484015250505050565b5f601f19601f8301169050919050565b5f610a8782610a2b565b610a918185610a35565b9350610aa1818560208601610a45565b610aaa81610a6d565b840191505092915050565b5f6080820190508181035f830152610acd8187610a7d565b90508181036020830152610ae18186610a7d565b90508181036040830152610af58185610a7d565b9050610b046060830184610a03565b95945050505050565b610b16816109f2565b8114610b20575f80fd5b50565b5f81359050610b3181610b0d565b92915050565b5f8060408385031215610b4d57610b4c610976565b5b5f610b5a85828601610b23565b9250506020610b6b85828601610994565b9150509250929050565b5f80fd5b5f80fd5b7f4e487b71000000000000000000000000000000000000000000000000000000005f52604160045260245ffd5b610bb382610a6d565b810181811067ffffffffffffffff82111715610bd257610bd1610b7d565b5b80604052505050565b5f610be461096d565b9050610bf08282610baa565b919050565b5f67ffffffffffffffff821115610c0f57610c0e610b7d565b5b610c1882610a6d565b9050602081019050919050565b828183375f83830152505050565b5f610c45610c4084610bf5565b610bdb565b905082815260208101848484011115610c6157610c60610b79565b5b610c6c848285610c25565b509392505050565b5f82601f830112610c8857610c87610b75565b5b8135610c98848260208601610c33565b91505092915050565b5f805f60608486031215610cb857610cb7610976565b5b5f84013567ffffffffffffffff811115610cd557610cd461097a565b5b610ce186828701610c74565b935050602084013567ffffffffffffffff811115610d0257610d0161097a565b5b610d0e86828701610c74565b925050604084013567ffffffffffffffff811115610d2f57610d2e61097a565b5b610d3b86828701610c74565b9150509250925092565b5f60208284031215610d5a57610d59610976565b5b5f610d6784828501610b23565b91505092915050565b5f81519050919050565b5f82825260208201905092915050565b5f819050602082019050919050565b610da28161093c565b82525050565b5f610db38383610d99565b60208301905092915050565b5f602082019050919050565b5f610dd582610d70565b610ddf8185610d7a565b9350610dea83610d8a565b805f5b83811015610e1a578151610e018882610da8565b9750610e0c83610dbf565b925050600181019050610ded565b5085935050505092915050565b5f6020820190508181035f830152610e3f8184610dcb565b905092915050565b7f43617220646f6573206e6f7420657869737400000000000000000000000000005f82015250565b5f610e7b601283610a35565b9150610e8682610e47565b602082019050919050565b5f6020820190508181035f830152610ea881610e6f565b9050919050565b7f4e487b71000000000000000000000000000000000000000000000000000000005f52603260045260245ffd5b7f4e487b71000000000000000000000000000000000000000000000000000000005f52602260045260245ffd5b5f6002820490506001821680610f2057607f821691505b602082108103610f3357610f32610edc565b5b50919050565b5f819050815f5260205f209050919050565b5f6020601f8301049050919050565b5f82821b905092915050565b5f60088302610f957fffffffffffffffffffffffffffffffffffffffffffffffffffffffffffffffff82610f5a565b610f9f8683610f5a565b95508019841693508086168417925050509392505050565b5f819050919050565b5f610fda610fd5610fd08461093c565b610fb7565b61093c565b9050919050565b5f819050919050565b610ff383610fc0565b611007610fff82610fe1565b848454610f66565b825550505050565b5f90565b61101b61100f565b611026818484610fea565b505050565b5b818110156110495761103e5f82611013565b60018101905061102c565b5050565b601f82111561108e5761105f81610f39565b61106884610f4b565b81016020851015611077578190505b61108b61108385610f4b565b83018261102b565b50505b505050565b5f82821c905092915050565b5f6110ae5f1984600802611093565b1980831691505092915050565b5f6110c6838361109f565b9150826002028217905092915050565b6110df82610a2b565b67ffffffffffffffff8111156110f8576110f7610b7d565b5b6111028254610f09565b61110d82828561104d565b5f60209050601f83116001811461113e575f841561112c578287015190505b61113685826110bb565b86555061119d565b601f19841661114c86610f39565b5f5b828110156111735784890151825560018201915060208501945060208101905061114e565b86831015611190578489015161118c601f89168261109f565b8355505b6001600288020188555050505b505050505050565b7f4e487b71000000000000000000000000000000000000000000000000000000005f52601160045260245ffd5b5f6111dc8261093c565b91506111e78361093c565b92508282039050818111156111ff576111fe6111a5565b5b92915050565b5f6080820190506112185f830187610945565b818103602083015261122a8186610a7d565b9050818103604083015261123e8185610a7d565b905081810360608301526112528184610a7d565b90509594505050505056fea2646970667358221220221401bc309e78624c64e3e1afa2366a0e49bcdcb8a71e261b1b8e9b8369434464736f6c63430008140033",
  "immutableReferences": {},
  "source": "// SPDX-License-Identifier: MIT\npragma solidity ^0.8.0;\n\ncontract CarNFTRegistry {\n    struct Car {\n        string carNumber;\n        string manufactureDate;\n        string model;\n        address owner;\n    }\n\n    Car[] public cars;\n    mapping(uint256 => address) public carToOwner;\n    mapping(address => uint256[]) public ownerToCars;\n\n    event CarRegistered(\n        uint256 carId,\n        string carNumber,\n        string manufactureDate,\n        string model,\n        address indexed owner\n    );\n\n    modifier onlyCarOwner(uint256 _carId) {\n        require(carToOwner[_carId] == msg.sender, \"Not the car owner\");\n        _;\n    }\n\n    function registerCar(\n        string memory _carNumber,\n        string memory _manufactureDate,\n        string memory _model\n    ) public {\n        Car memory newCar = Car({\n            carNumber: _carNumber,\n            manufactureDate: _manufactureDate,\n            model: _model,\n            owner: msg.sender\n        });\n\n        cars.push(newCar);\n        uint256 carId = cars.length - 1;\n        carToOwner[carId] = msg.sender;\n        ownerToCars[msg.sender].push(carId);\n\n        emit CarRegistered(carId, _carNumber, _manufactureDate, _model, msg.sender);\n    }\n\n    function getCar(uint256 _carId) public view returns (\n        string memory, string memory, string memory, address\n    ) {\n        require(_carId < cars.length, \"Car does not exist\");\n        Car memory car = cars[_carId];\n        return (car.carNumber, car.manufactureDate, car.model, car.owner);\n    }\n\n    function getCarsByOwner(address _owner) public view returns (uint256[] memory) {\n        return ownerToCars[_owner];\n    }\n\n    function getTotalCars() public view returns (uint256) {\n        return cars.length;\n    }\n}",
  "sourcePath": "/Users/user/Desktop/xrpl2025/car_node/contracts/CarNFTRegistry.sol",
  "compiler": {
    "name": "solc",
    "version": "0.8.20+commit.a1b79de6.Emscripten.clang"
  },
  "schemaVersion": "3.4.16",
  "updatedAt": "2025-03-22T21:49:04.662Z",
  "networkType": "ethereum",
  "devdoc": {
    "kind": "dev",
    "methods": {},
    "version": 1
  },
  "userdoc": {
    "kind": "user",
    "methods": {},
    "version": 1
  }
}