{
  "contractName": "FullCarNFT",
  "abi": [
    {
      "inputs": [
        {
          "internalType": "address",
          "name": "initialOwner",
          "type": "address"
        }
      ],
      "stateMutability": "nonpayable",
      "type": "constructor"
    },
    {
      "inputs": [],
      "name": "ERC721EnumerableForbiddenBatchMint",
      "type": "error"
    },
    {
      "inputs": [
        {
          "internalType": "address",
          "name": "sender",
          "type": "address"
        },
        {
          "internalType": "uint256",
          "name": "tokenId",
          "type": "uint256"
        },
        {
          "internalType": "address",
          "name": "owner",
          "type": "address"
        }
      ],
      "name": "ERC721IncorrectOwner",
      "type": "error"
    },
    {
      "inputs": [
        {
          "internalType": "address",
          "name": "operator",
          "type": "address"
        },
        {
          "internalType": "uint256",
          "name": "tokenId",
          "type": "uint256"
        }
      ],
      "name": "ERC721InsufficientApproval",
      "type": "error"
    },
    {
      "inputs": [
        {
          "internalType": "address",
          "name": "approver",
          "type": "address"
        }
      ],
      "name": "ERC721InvalidApprover",
      "type": "error"
    },
    {
      "inputs": [
        {
          "internalType": "address",
          "name": "operator",
          "type": "address"
        }
      ],
      "name": "ERC721InvalidOperator",
      "type": "error"
    },
    {
      "inputs": [
        {
          "internalType": "address",
          "name": "owner",
          "type": "address"
        }
      ],
      "name": "ERC721InvalidOwner",
      "type": "error"
    },
    {
      "inputs": [
        {
          "internalType": "address",
          "name": "receiver",
          "type": "address"
        }
      ],
      "name": "ERC721InvalidReceiver",
      "type": "error"
    },
    {
      "inputs": [
        {
          "internalType": "address",
          "name": "sender",
          "type": "address"
        }
      ],
      "name": "ERC721InvalidSender",
      "type": "error"
    },
    {
      "inputs": [
        {
          "internalType": "uint256",
          "name": "tokenId",
          "type": "uint256"
        }
      ],
      "name": "ERC721NonexistentToken",
      "type": "error"
    },
    {
      "inputs": [
        {
          "internalType": "address",
          "name": "owner",
          "type": "address"
        },
        {
          "internalType": "uint256",
          "name": "index",
          "type": "uint256"
        }
      ],
      "name": "ERC721OutOfBoundsIndex",
      "type": "error"
    },
    {
      "inputs": [
        {
          "internalType": "address",
          "name": "owner",
          "type": "address"
        }
      ],
      "name": "OwnableInvalidOwner",
      "type": "error"
    },
    {
      "inputs": [
        {
          "internalType": "address",
          "name": "account",
          "type": "address"
        }
      ],
      "name": "OwnableUnauthorizedAccount",
      "type": "error"
    },
    {
      "anonymous": false,
      "inputs": [
        {
          "indexed": true,
          "internalType": "address",
          "name": "owner",
          "type": "address"
        },
        {
          "indexed": true,
          "internalType": "address",
          "name": "approved",
          "type": "address"
        },
        {
          "indexed": true,
          "internalType": "uint256",
          "name": "tokenId",
          "type": "uint256"
        }
      ],
      "name": "Approval",
      "type": "event"
    },
    {
      "anonymous": false,
      "inputs": [
        {
          "indexed": true,
          "internalType": "address",
          "name": "owner",
          "type": "address"
        },
        {
          "indexed": true,
          "internalType": "address",
          "name": "operator",
          "type": "address"
        },
        {
          "indexed": false,
          "internalType": "bool",
          "name": "approved",
          "type": "bool"
        }
      ],
      "name": "ApprovalForAll",
      "type": "event"
    },
    {
      "anonymous": false,
      "inputs": [
        {
          "indexed": true,
          "internalType": "uint256",
          "name": "tokenId",
          "type": "uint256"
        },
        {
          "indexed": false,
          "internalType": "uint256",
          "name": "price",
          "type": "uint256"
        }
      ],
      "name": "CarListed",
      "type": "event"
    },
    {
      "anonymous": false,
      "inputs": [
        {
          "indexed": true,
          "internalType": "uint256",
          "name": "tokenId",
          "type": "uint256"
        },
        {
          "indexed": true,
          "internalType": "address",
          "name": "owner",
          "type": "address"
        }
      ],
      "name": "CarNFTMinted",
      "type": "event"
    },
    {
      "anonymous": false,
      "inputs": [
        {
          "indexed": true,
          "internalType": "uint256",
          "name": "tokenId",
          "type": "uint256"
        },
        {
          "indexed": true,
          "internalType": "address",
          "name": "buyer",
          "type": "address"
        },
        {
          "indexed": false,
          "internalType": "uint256",
          "name": "price",
          "type": "uint256"
        }
      ],
      "name": "CarSold",
      "type": "event"
    },
    {
      "anonymous": false,
      "inputs": [
        {
          "indexed": true,
          "internalType": "uint256",
          "name": "tokenId",
          "type": "uint256"
        },
        {
          "indexed": true,
          "internalType": "address",
          "name": "owner",
          "type": "address"
        },
        {
          "indexed": false,
          "internalType": "uint256",
          "name": "loanAmount",
          "type": "uint256"
        }
      ],
      "name": "CollateralLocked",
      "type": "event"
    },
    {
      "anonymous": false,
      "inputs": [
        {
          "indexed": true,
          "internalType": "uint256",
          "name": "tokenId",
          "type": "uint256"
        },
        {
          "indexed": true,
          "internalType": "address",
          "name": "provider",
          "type": "address"
        },
        {
          "indexed": false,
          "internalType": "uint256",
          "name": "premium",
          "type": "uint256"
        },
        {
          "indexed": false,
          "internalType": "uint256",
          "name": "expiry",
          "type": "uint256"
        }
      ],
      "name": "InsuranceLinked",
      "type": "event"
    },
    {
      "anonymous": false,
      "inputs": [
        {
          "indexed": true,
          "internalType": "address",
          "name": "previousOwner",
          "type": "address"
        },
        {
          "indexed": true,
          "internalType": "address",
          "name": "newOwner",
          "type": "address"
        }
      ],
      "name": "OwnershipTransferred",
      "type": "event"
    },
    {
      "anonymous": false,
      "inputs": [
        {
          "indexed": true,
          "internalType": "address",
          "name": "from",
          "type": "address"
        },
        {
          "indexed": true,
          "internalType": "address",
          "name": "to",
          "type": "address"
        },
        {
          "indexed": true,
          "internalType": "uint256",
          "name": "tokenId",
          "type": "uint256"
        }
      ],
      "name": "Transfer",
      "type": "event"
    },
    {
      "anonymous": false,
      "inputs": [
        {
          "indexed": true,
          "internalType": "uint256",
          "name": "tokenId",
          "type": "uint256"
        },
        {
          "indexed": true,
          "internalType": "address",
          "name": "from",
          "type": "address"
        },
        {
          "indexed": true,
          "internalType": "address",
          "name": "to",
          "type": "address"
        }
      ],
      "name": "TransferAccepted",
      "type": "event"
    },
    {
      "anonymous": false,
      "inputs": [
        {
          "indexed": true,
          "internalType": "uint256",
          "name": "tokenId",
          "type": "uint256"
        },
        {
          "indexed": true,
          "internalType": "address",
          "name": "to",
          "type": "address"
        }
      ],
      "name": "TransferProposed",
      "type": "event"
    },
    {
      "inputs": [
        {
          "internalType": "address",
          "name": "to",
          "type": "address"
        },
        {
          "internalType": "uint256",
          "name": "tokenId",
          "type": "uint256"
        }
      ],
      "name": "approve",
      "outputs": [],
      "stateMutability": "nonpayable",
      "type": "function"
    },
    {
      "inputs": [
        {
          "internalType": "address",
          "name": "owner",
          "type": "address"
        }
      ],
      "name": "balanceOf",
      "outputs": [
        {
          "internalType": "uint256",
          "name": "",
          "type": "uint256"
        }
      ],
      "stateMutability": "view",
      "type": "function",
      "constant": true
    },
    {
      "inputs": [
        {
          "internalType": "uint256",
          "name": "",
          "type": "uint256"
        }
      ],
      "name": "carInfos",
      "outputs": [
        {
          "internalType": "string",
          "name": "carNumber",
          "type": "string"
        },
        {
          "internalType": "string",
          "name": "manufactureDate",
          "type": "string"
        },
        {
          "internalType": "string",
          "name": "model",
          "type": "string"
        },
        {
          "internalType": "string",
          "name": "fuel",
          "type": "string"
        },
        {
          "internalType": "uint256",
          "name": "engineCC",
          "type": "uint256"
        },
        {
          "internalType": "string",
          "name": "color",
          "type": "string"
        },
        {
          "internalType": "string",
          "name": "warranty",
          "type": "string"
        },
        {
          "internalType": "string",
          "name": "metadataURI",
          "type": "string"
        }
      ],
      "stateMutability": "view",
      "type": "function",
      "constant": true
    },
    {
      "inputs": [
        {
          "internalType": "uint256",
          "name": "",
          "type": "uint256"
        }
      ],
      "name": "carPrices",
      "outputs": [
        {
          "internalType": "uint256",
          "name": "",
          "type": "uint256"
        }
      ],
      "stateMutability": "view",
      "type": "function",
      "constant": true
    },
    {
      "inputs": [
        {
          "internalType": "uint256",
          "name": "",
          "type": "uint256"
        }
      ],
      "name": "collateralOwners",
      "outputs": [
        {
          "internalType": "address",
          "name": "",
          "type": "address"
        }
      ],
      "stateMutability": "view",
      "type": "function",
      "constant": true
    },
    {
      "inputs": [
        {
          "internalType": "uint256",
          "name": "tokenId",
          "type": "uint256"
        }
      ],
      "name": "getApproved",
      "outputs": [
        {
          "internalType": "address",
          "name": "",
          "type": "address"
        }
      ],
      "stateMutability": "view",
      "type": "function",
      "constant": true
    },
    {
      "inputs": [
        {
          "internalType": "uint256",
          "name": "",
          "type": "uint256"
        }
      ],
      "name": "insurancePolicies",
      "outputs": [
        {
          "internalType": "address",
          "name": "provider",
          "type": "address"
        },
        {
          "internalType": "uint256",
          "name": "premium",
          "type": "uint256"
        },
        {
          "internalType": "uint256",
          "name": "expiry",
          "type": "uint256"
        },
        {
          "internalType": "bool",
          "name": "active",
          "type": "bool"
        }
      ],
      "stateMutability": "view",
      "type": "function",
      "constant": true
    },
    {
      "inputs": [
        {
          "internalType": "address",
          "name": "owner",
          "type": "address"
        },
        {
          "internalType": "address",
          "name": "operator",
          "type": "address"
        }
      ],
      "name": "isApprovedForAll",
      "outputs": [
        {
          "internalType": "bool",
          "name": "",
          "type": "bool"
        }
      ],
      "stateMutability": "view",
      "type": "function",
      "constant": true
    },
    {
      "inputs": [
        {
          "internalType": "uint256",
          "name": "",
          "type": "uint256"
        }
      ],
      "name": "loanAmounts",
      "outputs": [
        {
          "internalType": "uint256",
          "name": "",
          "type": "uint256"
        }
      ],
      "stateMutability": "view",
      "type": "function",
      "constant": true
    },
    {
      "inputs": [],
      "name": "name",
      "outputs": [
        {
          "internalType": "string",
          "name": "",
          "type": "string"
        }
      ],
      "stateMutability": "view",
      "type": "function",
      "constant": true
    },
    {
      "inputs": [],
      "name": "owner",
      "outputs": [
        {
          "internalType": "address",
          "name": "",
          "type": "address"
        }
      ],
      "stateMutability": "view",
      "type": "function",
      "constant": true
    },
    {
      "inputs": [
        {
          "internalType": "uint256",
          "name": "tokenId",
          "type": "uint256"
        }
      ],
      "name": "ownerOf",
      "outputs": [
        {
          "internalType": "address",
          "name": "",
          "type": "address"
        }
      ],
      "stateMutability": "view",
      "type": "function",
      "constant": true
    },
    {
      "inputs": [
        {
          "internalType": "string",
          "name": "",
          "type": "string"
        }
      ],
      "name": "registeredCarNumbers",
      "outputs": [
        {
          "internalType": "bool",
          "name": "",
          "type": "bool"
        }
      ],
      "stateMutability": "view",
      "type": "function",
      "constant": true
    },
    {
      "inputs": [],
      "name": "renounceOwnership",
      "outputs": [],
      "stateMutability": "nonpayable",
      "type": "function"
    },
    {
      "inputs": [
        {
          "internalType": "address",
          "name": "from",
          "type": "address"
        },
        {
          "internalType": "address",
          "name": "to",
          "type": "address"
        },
        {
          "internalType": "uint256",
          "name": "tokenId",
          "type": "uint256"
        }
      ],
      "name": "safeTransferFrom",
      "outputs": [],
      "stateMutability": "nonpayable",
      "type": "function"
    },
    {
      "inputs": [
        {
          "internalType": "address",
          "name": "from",
          "type": "address"
        },
        {
          "internalType": "address",
          "name": "to",
          "type": "address"
        },
        {
          "internalType": "uint256",
          "name": "tokenId",
          "type": "uint256"
        },
        {
          "internalType": "bytes",
          "name": "data",
          "type": "bytes"
        }
      ],
      "name": "safeTransferFrom",
      "outputs": [],
      "stateMutability": "nonpayable",
      "type": "function"
    },
    {
      "inputs": [
        {
          "internalType": "address",
          "name": "operator",
          "type": "address"
        },
        {
          "internalType": "bool",
          "name": "approved",
          "type": "bool"
        }
      ],
      "name": "setApprovalForAll",
      "outputs": [],
      "stateMutability": "nonpayable",
      "type": "function"
    },
    {
      "inputs": [],
      "name": "symbol",
      "outputs": [
        {
          "internalType": "string",
          "name": "",
          "type": "string"
        }
      ],
      "stateMutability": "view",
      "type": "function",
      "constant": true
    },
    {
      "inputs": [
        {
          "internalType": "uint256",
          "name": "index",
          "type": "uint256"
        }
      ],
      "name": "tokenByIndex",
      "outputs": [
        {
          "internalType": "uint256",
          "name": "",
          "type": "uint256"
        }
      ],
      "stateMutability": "view",
      "type": "function",
      "constant": true
    },
    {
      "inputs": [
        {
          "internalType": "address",
          "name": "owner",
          "type": "address"
        },
        {
          "internalType": "uint256",
          "name": "index",
          "type": "uint256"
        }
      ],
      "name": "tokenOfOwnerByIndex",
      "outputs": [
        {
          "internalType": "uint256",
          "name": "",
          "type": "uint256"
        }
      ],
      "stateMutability": "view",
      "type": "function",
      "constant": true
    },
    {
      "inputs": [
        {
          "internalType": "uint256",
          "name": "tokenId",
          "type": "uint256"
        }
      ],
      "name": "tokenURI",
      "outputs": [
        {
          "internalType": "string",
          "name": "",
          "type": "string"
        }
      ],
      "stateMutability": "view",
      "type": "function",
      "constant": true
    },
    {
      "inputs": [],
      "name": "totalSupply",
      "outputs": [
        {
          "internalType": "uint256",
          "name": "",
          "type": "uint256"
        }
      ],
      "stateMutability": "view",
      "type": "function",
      "constant": true
    },
    {
      "inputs": [
        {
          "internalType": "address",
          "name": "from",
          "type": "address"
        },
        {
          "internalType": "address",
          "name": "to",
          "type": "address"
        },
        {
          "internalType": "uint256",
          "name": "tokenId",
          "type": "uint256"
        }
      ],
      "name": "transferFrom",
      "outputs": [],
      "stateMutability": "nonpayable",
      "type": "function"
    },
    {
      "inputs": [
        {
          "internalType": "address",
          "name": "newOwner",
          "type": "address"
        }
      ],
      "name": "transferOwnership",
      "outputs": [],
      "stateMutability": "nonpayable",
      "type": "function"
    },
    {
      "inputs": [
        {
          "internalType": "uint256",
          "name": "",
          "type": "uint256"
        }
      ],
      "name": "transferProposals",
      "outputs": [
        {
          "internalType": "address",
          "name": "",
          "type": "address"
        }
      ],
      "stateMutability": "view",
      "type": "function",
      "constant": true
    },
    {
      "inputs": [
        {
          "internalType": "address",
          "name": "recipient",
          "type": "address"
        },
        {
          "internalType": "string",
          "name": "carNumber",
          "type": "string"
        },
        {
          "internalType": "string",
          "name": "manufactureDate",
          "type": "string"
        },
        {
          "internalType": "string",
          "name": "model",
          "type": "string"
        },
        {
          "internalType": "string",
          "name": "fuel",
          "type": "string"
        },
        {
          "internalType": "uint256",
          "name": "engineCC",
          "type": "uint256"
        },
        {
          "internalType": "string",
          "name": "color",
          "type": "string"
        },
        {
          "internalType": "string",
          "name": "warranty",
          "type": "string"
        },
        {
          "internalType": "string",
          "name": "metadataURI",
          "type": "string"
        }
      ],
      "name": "registerCar",
      "outputs": [
        {
          "internalType": "uint256",
          "name": "",
          "type": "uint256"
        }
      ],
      "stateMutability": "nonpayable",
      "type": "function"
    },
    {
      "inputs": [
        {
          "internalType": "uint256",
          "name": "tokenId",
          "type": "uint256"
        }
      ],
      "name": "getCarInfo",
      "outputs": [
        {
          "components": [
            {
              "internalType": "string",
              "name": "carNumber",
              "type": "string"
            },
            {
              "internalType": "string",
              "name": "manufactureDate",
              "type": "string"
            },
            {
              "internalType": "string",
              "name": "model",
              "type": "string"
            },
            {
              "internalType": "string",
              "name": "fuel",
              "type": "string"
            },
            {
              "internalType": "uint256",
              "name": "engineCC",
              "type": "uint256"
            },
            {
              "internalType": "string",
              "name": "color",
              "type": "string"
            },
            {
              "internalType": "string",
              "name": "warranty",
              "type": "string"
            },
            {
              "internalType": "string",
              "name": "metadataURI",
              "type": "string"
            }
          ],
          "internalType": "struct FullCarNFT.CarInfo",
          "name": "",
          "type": "tuple"
        }
      ],
      "stateMutability": "view",
      "type": "function",
      "constant": true
    },
    {
      "inputs": [
        {
          "internalType": "uint256",
          "name": "tokenId",
          "type": "uint256"
        },
        {
          "internalType": "uint256",
          "name": "price",
          "type": "uint256"
        }
      ],
      "name": "listCarForSale",
      "outputs": [],
      "stateMutability": "nonpayable",
      "type": "function"
    },
    {
      "inputs": [
        {
          "internalType": "uint256",
          "name": "tokenId",
          "type": "uint256"
        }
      ],
      "name": "buyCar",
      "outputs": [],
      "stateMutability": "payable",
      "type": "function",
      "payable": true
    },
    {
      "inputs": [
        {
          "internalType": "uint256",
          "name": "tokenId",
          "type": "uint256"
        },
        {
          "internalType": "address",
          "name": "to",
          "type": "address"
        }
      ],
      "name": "proposeTransfer",
      "outputs": [],
      "stateMutability": "nonpayable",
      "type": "function"
    },
    {
      "inputs": [
        {
          "internalType": "uint256",
          "name": "tokenId",
          "type": "uint256"
        }
      ],
      "name": "acceptTransfer",
      "outputs": [],
      "stateMutability": "nonpayable",
      "type": "function"
    },
    {
      "inputs": [
        {
          "internalType": "uint256",
          "name": "tokenId",
          "type": "uint256"
        },
        {
          "internalType": "uint256",
          "name": "loanAmount",
          "type": "uint256"
        }
      ],
      "name": "lockAsCollateral",
      "outputs": [],
      "stateMutability": "nonpayable",
      "type": "function"
    },
    {
      "inputs": [
        {
          "internalType": "uint256",
          "name": "tokenId",
          "type": "uint256"
        },
        {
          "internalType": "address",
          "name": "provider",
          "type": "address"
        },
        {
          "internalType": "uint256",
          "name": "premium",
          "type": "uint256"
        },
        {
          "internalType": "uint256",
          "name": "expiry",
          "type": "uint256"
        }
      ],
      "name": "linkInsurance",
      "outputs": [],
      "stateMutability": "nonpayable",
      "type": "function"
    },
    {
      "inputs": [
        {
          "internalType": "uint256",
          "name": "tokenId",
          "type": "uint256"
        }
      ],
      "name": "getInsurance",
      "outputs": [
        {
          "components": [
            {
              "internalType": "address",
              "name": "provider",
              "type": "address"
            },
            {
              "internalType": "uint256",
              "name": "premium",
              "type": "uint256"
            },
            {
              "internalType": "uint256",
              "name": "expiry",
              "type": "uint256"
            },
            {
              "internalType": "bool",
              "name": "active",
              "type": "bool"
            }
          ],
          "internalType": "struct FullCarNFT.Insurance",
          "name": "",
          "type": "tuple"
        }
      ],
      "stateMutability": "view",
      "type": "function",
      "constant": true
    },
    {
      "inputs": [
        {
          "internalType": "uint256",
          "name": "tokenId",
          "type": "uint256"
        }
      ],
      "name": "isForSale",
      "outputs": [
        {
          "internalType": "bool",
          "name": "",
          "type": "bool"
        }
      ],
      "stateMutability": "view",
      "type": "function",
      "constant": true
    },
    {
      "inputs": [
        {
          "internalType": "bytes4",
          "name": "interfaceId",
          "type": "bytes4"
        }
      ],
      "name": "supportsInterface",
      "outputs": [
        {
          "internalType": "bool",
          "name": "",
          "type": "bool"
        }
      ],
      "stateMutability": "view",
      "type": "function",
      "constant": true
    }
  ],
  "bytecode": "0x608060405234801562000010575f80fd5b50604051620052913803806200529183398181016040528101906200003691906200027c565b806040518060400160405280600a81526020017f46756c6c4361724e4654000000000000000000000000000000000000000000008152506040518060400160405280600481526020017f4341525800000000000000000000000000000000000000000000000000000000815250815f9081620000b3919062000510565b508060019081620000c5919062000510565b5050505f73ffffffffffffffffffffffffffffffffffffffff168173ffffffffffffffffffffffffffffffffffffffff16036200013b575f6040517f1e4fbdf700000000000000000000000000000000000000000000000000000000815260040162000132919062000605565b60405180910390fd5b6200014c816200015460201b60201c565b505062000620565b5f600a5f9054906101000a900473ffffffffffffffffffffffffffffffffffffffff16905081600a5f6101000a81548173ffffffffffffffffffffffffffffffffffffffff021916908373ffffffffffffffffffffffffffffffffffffffff1602179055508173ffffffffffffffffffffffffffffffffffffffff168173ffffffffffffffffffffffffffffffffffffffff167f8be0079c531659141344cd1fd0a4f28419497f9722a3daafe3b4186f6b6457e060405160405180910390a35050565b5f80fd5b5f73ffffffffffffffffffffffffffffffffffffffff82169050919050565b5f62000246826200021b565b9050919050565b62000258816200023a565b811462000263575f80fd5b50565b5f8151905062000276816200024d565b92915050565b5f6020828403121562000294576200029362000217565b5b5f620002a38482850162000266565b91505092915050565b5f81519050919050565b7f4e487b71000000000000000000000000000000000000000000000000000000005f52604160045260245ffd5b7f4e487b71000000000000000000000000000000000000000000000000000000005f52602260045260245ffd5b5f60028204905060018216806200032857607f821691505b6020821081036200033e576200033d620002e3565b5b50919050565b5f819050815f5260205f209050919050565b5f6020601f8301049050919050565b5f82821b905092915050565b5f60088302620003a27fffffffffffffffffffffffffffffffffffffffffffffffffffffffffffffffff8262000365565b620003ae868362000365565b95508019841693508086168417925050509392505050565b5f819050919050565b5f819050919050565b5f620003f8620003f2620003ec84620003c6565b620003cf565b620003c6565b9050919050565b5f819050919050565b6200041383620003d8565b6200042b6200042282620003ff565b84845462000371565b825550505050565b5f90565b6200044162000433565b6200044e81848462000408565b505050565b5b818110156200047557620004695f8262000437565b60018101905062000454565b5050565b601f821115620004c4576200048e8162000344565b620004998462000356565b81016020851015620004a9578190505b620004c1620004b88562000356565b83018262000453565b50505b505050565b5f82821c905092915050565b5f620004e65f1984600802620004c9565b1980831691505092915050565b5f620005008383620004d5565b9150826002028217905092915050565b6200051b82620002ac565b67ffffffffffffffff811115620005375762000536620002b6565b5b62000543825462000310565b6200055082828562000479565b5f60209050601f83116001811462000586575f841562000571578287015190505b6200057d8582620004f3565b865550620005ec565b601f198416620005968662000344565b5f5b82811015620005bf5784890151825560018201915060208501945060208101905062000598565b86831015620005df5784890151620005db601f891682620004d5565b8355505b6001600288020188555050505b505050505050565b620005ff816200023a565b82525050565b5f6020820190506200061a5f830184620005f4565b92915050565b614c63806200062e5f395ff3fe60806040526004361061020e575f3560e01c806370a0823111610117578063b6f2d6bf1161009f578063cc2005411161006e578063cc20054114610832578063d01af8bc1461085a578063e985e9c514610896578063f2fde38b146108d2578063f6888384146108fa5761020e565b8063b6f2d6bf14610767578063b88d4fde146107a6578063c87b56dd146107ce578063cb4a81a31461080a5761020e565b806386bde3d1116100e657806386bde3d1146106875780638da5cb5b146106af57806395d89b41146106d95780639f54fc0a14610703578063a22cb4651461073f5761020e565b806370a08231146105bd578063715018a6146105f95780638546d0021461060f57806385fae6021461064b5761020e565b806323b872dd1161019a5780634c96c536116101695780634c96c536146104aa5780634f6ccce7146104ed5780636352211e1461052957806366772d68146105655780636c231060146105a15761020e565b806323b872dd146103f6578063274fae7c1461041e5780632f745c591461044657806342842e0e146104825761020e565b8063081812fc116101e1578063081812fc146102f0578063095ea7b31461032c5780630bd804c4146103545780630c4b772e1461039057806318160ddd146103cc5761020e565b8063012fe7fd1461021257806301ffc9a71461024e5780630494c17b1461028a57806306fdde03146102c6575b5f80fd5b34801561021d575f80fd5b50610238600480360381019061023391906138a3565b610922565b604051610245919061390d565b60405180910390f35b348015610259575f80fd5b50610274600480360381019061026f919061397b565b610952565b60405161028191906139c0565b60405180910390f35b348015610295575f80fd5b506102b060048036038101906102ab9190613b3f565b610963565b6040516102bd9190613cd6565b60405180910390f35b3480156102d1575f80fd5b506102da610b79565b6040516102e79190613d69565b60405180910390f35b3480156102fb575f80fd5b50610316600480360381019061031191906138a3565b610c08565b604051610323919061390d565b60405180910390f35b348015610337575f80fd5b50610352600480360381019061034d9190613d89565b610c23565b005b34801561035f575f80fd5b5061037a60048036038101906103759190613dc7565b610c39565b60405161038791906139c0565b60405180910390f35b34801561039b575f80fd5b506103b660048036038101906103b191906138a3565b610c6e565b6040516103c39190613cd6565b60405180910390f35b3480156103d7575f80fd5b506103e0610c83565b6040516103ed9190613cd6565b60405180910390f35b348015610401575f80fd5b5061041c60048036038101906104179190613e0e565b610c8f565b005b348015610429575f80fd5b50610444600480360381019061043f91906138a3565b610d8e565b005b348015610451575f80fd5b5061046c60048036038101906104679190613d89565b610ed5565b6040516104799190613cd6565b60405180910390f35b34801561048d575f80fd5b506104a860048036038101906104a39190613e0e565b610f79565b005b3480156104b5575f80fd5b506104d060048036038101906104cb91906138a3565b610f98565b6040516104e4989796959493929190613e5e565b60405180910390f35b3480156104f8575f80fd5b50610513600480360381019061050e91906138a3565b611386565b6040516105209190613cd6565b60405180910390f35b348015610534575f80fd5b5061054f600480360381019061054a91906138a3565b6113f8565b60405161055c919061390d565b60405180910390f35b348015610570575f80fd5b5061058b600480360381019061058691906138a3565b611409565b6040516105989190613cd6565b60405180910390f35b6105bb60048036038101906105b691906138a3565b61141e565b005b3480156105c8575f80fd5b506105e360048036038101906105de9190613f0b565b61157b565b6040516105f09190613cd6565b60405180910390f35b348015610604575f80fd5b5061060d611631565b005b34801561061a575f80fd5b50610635600480360381019061063091906138a3565b611644565b60405161064291906139c0565b60405180910390f35b348015610656575f80fd5b50610671600480360381019061066c91906138a3565b611660565b60405161067e9190613fb6565b60405180910390f35b348015610692575f80fd5b506106ad60048036038101906106a89190613fcf565b611717565b005b3480156106ba575f80fd5b506106c3611824565b6040516106d0919061390d565b60405180910390f35b3480156106e4575f80fd5b506106ed61184c565b6040516106fa9190613d69565b60405180910390f35b34801561070e575f80fd5b50610729600480360381019061072491906138a3565b6118dc565b604051610736919061390d565b60405180910390f35b34801561074a575f80fd5b5061076560048036038101906107609190614037565b61190c565b005b348015610772575f80fd5b5061078d600480360381019061078891906138a3565b611922565b60405161079d9493929190614075565b60405180910390f35b3480156107b1575f80fd5b506107cc60048036038101906107c79190614156565b611979565b005b3480156107d9575f80fd5b506107f460048036038101906107ef91906138a3565b61199e565b6040516108019190613d69565b60405180910390f35b348015610815575f80fd5b50610830600480360381019061082b91906141d6565b611a04565b005b34801561083d575f80fd5b506108586004803603810190610853919061423a565b611b96565b005b348015610865575f80fd5b50610880600480360381019061087b91906138a3565b611ccf565b60405161088d9190614397565b60405180910390f35b3480156108a1575f80fd5b506108bc60048036038101906108b791906143b7565b6120fe565b6040516108c991906139c0565b60405180910390f35b3480156108dd575f80fd5b506108f860048036038101906108f39190613f0b565b61218c565b005b348015610905575f80fd5b50610920600480360381019061091b919061423a565b612210565b005b600e602052805f5260405f205f915054906101000a900473ffffffffffffffffffffffffffffffffffffffff1681565b5f61095c8261231a565b9050919050565b5f61096c612393565b600d8960405161097c919061442f565b90815260200160405180910390205f9054906101000a900460ff16156109d7576040517f08c379a00000000000000000000000000000000000000000000000000000000081526004016109ce9061448f565b60405180910390fd5b600b5f8154809291906109e9906144da565b91905055505f600b5490506109fe8b8261241a565b6040518061010001604052808b81526020018a815260200189815260200188815260200187815260200186815260200185815260200184815250600c5f8381526020019081526020015f205f820151815f019081610a5c919061471b565b506020820151816001019081610a72919061471b565b506040820151816002019081610a88919061471b565b506060820151816003019081610a9e919061471b565b506080820151816004015560a0820151816005019081610abe919061471b565b5060c0820151816006019081610ad4919061471b565b5060e0820151816007019081610aea919061471b565b509050506001600d8b604051610b00919061442f565b90815260200160405180910390205f6101000a81548160ff0219169083151502179055508a73ffffffffffffffffffffffffffffffffffffffff16817f6f15ce9fba67521e3911d1a5aa7b625e6e6c63c020eb3e30fdb3f24bf684c1b160405160405180910390a3809150509998505050505050505050565b60605f8054610b879061454e565b80601f0160208091040260200160405190810160405280929190818152602001828054610bb39061454e565b8015610bfe5780601f10610bd557610100808354040283529160200191610bfe565b820191905f5260205f20905b815481529060010190602001808311610be157829003601f168201915b5050505050905090565b5f610c1282612437565b50610c1c826124bd565b9050919050565b610c358282610c306124f6565b6124fd565b5050565b600d818051602081018201805184825260208301602085012081835280955050505050505f915054906101000a900460ff1681565b6011602052805f5260405f205f915090505481565b5f600880549050905090565b5f73ffffffffffffffffffffffffffffffffffffffff168273ffffffffffffffffffffffffffffffffffffffff1603610cff575f6040517f64a0ae92000000000000000000000000000000000000000000000000000000008152600401610cf6919061390d565b60405180910390fd5b5f610d128383610d0d6124f6565b61250f565b90508373ffffffffffffffffffffffffffffffffffffffff168173ffffffffffffffffffffffffffffffffffffffff1614610d88578382826040517f64283d7b000000000000000000000000000000000000000000000000000000008152600401610d7f939291906147ea565b60405180910390fd5b50505050565b3373ffffffffffffffffffffffffffffffffffffffff16600e5f8381526020019081526020015f205f9054906101000a900473ffffffffffffffffffffffffffffffffffffffff1673ffffffffffffffffffffffffffffffffffffffff1614610e2c576040517f08c379a0000000000000000000000000000000000000000000000000000000008152600401610e2390614869565b60405180910390fd5b5f610e36826113f8565b9050610e43813384612629565b600e5f8381526020019081526020015f205f6101000a81549073ffffffffffffffffffffffffffffffffffffffff02191690553373ffffffffffffffffffffffffffffffffffffffff168173ffffffffffffffffffffffffffffffffffffffff16837f9cc86532afd4843c8838f17d7972e7f29389fe47d6712b6666af2d42df29ab3860405160405180910390a45050565b5f610edf8361157b565b8210610f245782826040517fa57d13dc000000000000000000000000000000000000000000000000000000008152600401610f1b929190614887565b60405180910390fd5b60065f8473ffffffffffffffffffffffffffffffffffffffff1673ffffffffffffffffffffffffffffffffffffffff1681526020019081526020015f205f8381526020019081526020015f2054905092915050565b610f9383838360405180602001604052805f815250611979565b505050565b600c602052805f5260405f205f91509050805f018054610fb79061454e565b80601f0160208091040260200160405190810160405280929190818152602001828054610fe39061454e565b801561102e5780601f106110055761010080835404028352916020019161102e565b820191905f5260205f20905b81548152906001019060200180831161101157829003601f168201915b5050505050908060010180546110439061454e565b80601f016020809104026020016040519081016040528092919081815260200182805461106f9061454e565b80156110ba5780601f10611091576101008083540402835291602001916110ba565b820191905f5260205f20905b81548152906001019060200180831161109d57829003601f168201915b5050505050908060020180546110cf9061454e565b80601f01602080910402602001604051908101604052809291908181526020018280546110fb9061454e565b80156111465780601f1061111d57610100808354040283529160200191611146565b820191905f5260205f20905b81548152906001019060200180831161112957829003601f168201915b50505050509080600301805461115b9061454e565b80601f01602080910402602001604051908101604052809291908181526020018280546111879061454e565b80156111d25780601f106111a9576101008083540402835291602001916111d2565b820191905f5260205f20905b8154815290600101906020018083116111b557829003601f168201915b5050505050908060040154908060050180546111ed9061454e565b80601f01602080910402602001604051908101604052809291908181526020018280546112199061454e565b80156112645780601f1061123b57610100808354040283529160200191611264565b820191905f5260205f20905b81548152906001019060200180831161124757829003601f168201915b5050505050908060060180546112799061454e565b80601f01602080910402602001604051908101604052809291908181526020018280546112a59061454e565b80156112f05780601f106112c7576101008083540402835291602001916112f0565b820191905f5260205f20905b8154815290600101906020018083116112d357829003601f168201915b5050505050908060070180546113059061454e565b80601f01602080910402602001604051908101604052809291908181526020018280546113319061454e565b801561137c5780601f106113535761010080835404028352916020019161137c565b820191905f5260205f20905b81548152906001019060200180831161135f57829003601f168201915b5050505050905088565b5f61138f610c83565b82106113d4575f826040517fa57d13dc0000000000000000000000000000000000000000000000000000000081526004016113cb929190614887565b60405180910390fd5b600882815481106113e8576113e76148ae565b5b905f5260205f2001549050919050565b5f61140282612437565b9050919050565b600f602052805f5260405f205f915090505481565b5f600f5f8381526020019081526020015f205490505f8111611475576040517f08c379a000000000000000000000000000000000000000000000000000000000815260040161146c90614925565b60405180910390fd5b803410156114b8576040517f08c379a00000000000000000000000000000000000000000000000000000000081526004016114af9061498d565b60405180910390fd5b5f6114c2836113f8565b90506114cf813385612629565b8073ffffffffffffffffffffffffffffffffffffffff166108fc8390811502906040515f60405180830381858888f19350505050158015611512573d5f803e3d5ffd5b50600f5f8481526020019081526020015f205f90553373ffffffffffffffffffffffffffffffffffffffff16837f9d90e6b7483b210fb2eb1814d730195955d020389f316a5127d8f07d6fe61c8b8460405161156e9190613cd6565b60405180910390a3505050565b5f8073ffffffffffffffffffffffffffffffffffffffff168273ffffffffffffffffffffffffffffffffffffffff16036115ec575f6040517f89c62b640000000000000000000000000000000000000000000000000000000081526004016115e3919061390d565b60405180910390fd5b60035f8373ffffffffffffffffffffffffffffffffffffffff1673ffffffffffffffffffffffffffffffffffffffff1681526020019081526020015f20549050919050565b611639612393565b6116425f612791565b565b5f80600f5f8481526020019081526020015f2054119050919050565b6116686137df565b611671826113f8565b5060125f8381526020019081526020015f206040518060800160405290815f82015f9054906101000a900473ffffffffffffffffffffffffffffffffffffffff1673ffffffffffffffffffffffffffffffffffffffff1673ffffffffffffffffffffffffffffffffffffffff1681526020016001820154815260200160028201548152602001600382015f9054906101000a900460ff1615151515815250509050919050565b3373ffffffffffffffffffffffffffffffffffffffff16611737836113f8565b73ffffffffffffffffffffffffffffffffffffffff161461178d576040517f08c379a0000000000000000000000000000000000000000000000000000000008152600401611784906149f5565b60405180910390fd5b80600e5f8481526020019081526020015f205f6101000a81548173ffffffffffffffffffffffffffffffffffffffff021916908373ffffffffffffffffffffffffffffffffffffffff1602179055508073ffffffffffffffffffffffffffffffffffffffff16827fe2315b7139fbafadb1a0a71e13035af4872231af529029342b5682b942a3008060405160405180910390a35050565b5f600a5f9054906101000a900473ffffffffffffffffffffffffffffffffffffffff16905090565b60606001805461185b9061454e565b80601f01602080910402602001604051908101604052809291908181526020018280546118879061454e565b80156118d25780601f106118a9576101008083540402835291602001916118d2565b820191905f5260205f20905b8154815290600101906020018083116118b557829003601f168201915b5050505050905090565b6010602052805f5260405f205f915054906101000a900473ffffffffffffffffffffffffffffffffffffffff1681565b61191e6119176124f6565b8383612854565b5050565b6012602052805f5260405f205f91509050805f015f9054906101000a900473ffffffffffffffffffffffffffffffffffffffff1690806001015490806002015490806003015f9054906101000a900460ff16905084565b611984848484610c8f565b61199861198f6124f6565b858585856129bd565b50505050565b60606119a982612437565b505f6119b3612b69565b90505f8151116119d15760405180602001604052805f8152506119fc565b806119db84612b7f565b6040516020016119ec929190614a13565b6040516020818303038152906040525b915050919050565b3373ffffffffffffffffffffffffffffffffffffffff16611a24856113f8565b73ffffffffffffffffffffffffffffffffffffffff1614611a7a576040517f08c379a0000000000000000000000000000000000000000000000000000000008152600401611a71906149f5565b60405180910390fd5b60405180608001604052808473ffffffffffffffffffffffffffffffffffffffff1681526020018381526020018281526020016001151581525060125f8681526020019081526020015f205f820151815f015f6101000a81548173ffffffffffffffffffffffffffffffffffffffff021916908373ffffffffffffffffffffffffffffffffffffffff16021790555060208201518160010155604082015181600201556060820151816003015f6101000a81548160ff0219169083151502179055509050508273ffffffffffffffffffffffffffffffffffffffff16847f967e077fd0dc1ca85dc5b2609d6318b6bb0f638679ee75c273f07f871d52d2ff8484604051611b88929190614a36565b60405180910390a350505050565b3373ffffffffffffffffffffffffffffffffffffffff16611bb6836113f8565b73ffffffffffffffffffffffffffffffffffffffff1614611c0c576040517f08c379a0000000000000000000000000000000000000000000000000000000008152600401611c03906149f5565b60405180910390fd5b611c17333084612629565b3360105f8481526020019081526020015f205f6101000a81548173ffffffffffffffffffffffffffffffffffffffff021916908373ffffffffffffffffffffffffffffffffffffffff1602179055508060115f8481526020019081526020015f20819055503373ffffffffffffffffffffffffffffffffffffffff16827f93c421ad2d07a35503ebcc2501422ba043643ec143eb79acb4c5ff402f45e12e83604051611cc39190613cd6565b60405180910390a35050565b611cd761381b565b611ce0826113f8565b50600c5f8381526020019081526020015f20604051806101000160405290815f82018054611d0d9061454e565b80601f0160208091040260200160405190810160405280929190818152602001828054611d399061454e565b8015611d845780601f10611d5b57610100808354040283529160200191611d84565b820191905f5260205f20905b815481529060010190602001808311611d6757829003601f168201915b50505050508152602001600182018054611d9d9061454e565b80601f0160208091040260200160405190810160405280929190818152602001828054611dc99061454e565b8015611e145780601f10611deb57610100808354040283529160200191611e14565b820191905f5260205f20905b815481529060010190602001808311611df757829003601f168201915b50505050508152602001600282018054611e2d9061454e565b80601f0160208091040260200160405190810160405280929190818152602001828054611e599061454e565b8015611ea45780601f10611e7b57610100808354040283529160200191611ea4565b820191905f5260205f20905b815481529060010190602001808311611e8757829003601f168201915b50505050508152602001600382018054611ebd9061454e565b80601f0160208091040260200160405190810160405280929190818152602001828054611ee99061454e565b8015611f345780601f10611f0b57610100808354040283529160200191611f34565b820191905f5260205f20905b815481529060010190602001808311611f1757829003601f168201915b5050505050815260200160048201548152602001600582018054611f579061454e565b80601f0160208091040260200160405190810160405280929190818152602001828054611f839061454e565b8015611fce5780601f10611fa557610100808354040283529160200191611fce565b820191905f5260205f20905b815481529060010190602001808311611fb157829003601f168201915b50505050508152602001600682018054611fe79061454e565b80601f01602080910402602001604051908101604052809291908181526020018280546120139061454e565b801561205e5780601f106120355761010080835404028352916020019161205e565b820191905f5260205f20905b81548152906001019060200180831161204157829003601f168201915b505050505081526020016007820180546120779061454e565b80601f01602080910402602001604051908101604052809291908181526020018280546120a39061454e565b80156120ee5780601f106120c5576101008083540402835291602001916120ee565b820191905f5260205f20905b8154815290600101906020018083116120d157829003601f168201915b5050505050815250509050919050565b5f60055f8473ffffffffffffffffffffffffffffffffffffffff1673ffffffffffffffffffffffffffffffffffffffff1681526020019081526020015f205f8373ffffffffffffffffffffffffffffffffffffffff1673ffffffffffffffffffffffffffffffffffffffff1681526020019081526020015f205f9054906101000a900460ff16905092915050565b612194612393565b5f73ffffffffffffffffffffffffffffffffffffffff168173ffffffffffffffffffffffffffffffffffffffff1603612204575f6040517f1e4fbdf70000000000000000000000000000000000000000000000000000000081526004016121fb919061390d565b60405180910390fd5b61220d81612791565b50565b3373ffffffffffffffffffffffffffffffffffffffff16612230836113f8565b73ffffffffffffffffffffffffffffffffffffffff1614612286576040517f08c379a000000000000000000000000000000000000000000000000000000000815260040161227d906149f5565b60405180910390fd5b5f81116122c8576040517f08c379a00000000000000000000000000000000000000000000000000000000081526004016122bf90614aa7565b60405180910390fd5b80600f5f8481526020019081526020015f2081905550817f506aa3644eeb36b986c05e5a3a7eaa890565eaf642ab754c351bfee540f4337a8260405161230e9190613cd6565b60405180910390a25050565b5f7f780e9d63000000000000000000000000000000000000000000000000000000007bffffffffffffffffffffffffffffffffffffffffffffffffffffffff1916827bffffffffffffffffffffffffffffffffffffffffffffffffffffffff1916148061238c575061238b82612c49565b5b9050919050565b61239b6124f6565b73ffffffffffffffffffffffffffffffffffffffff166123b9611824565b73ffffffffffffffffffffffffffffffffffffffff1614612418576123dc6124f6565b6040517f118cdaa700000000000000000000000000000000000000000000000000000000815260040161240f919061390d565b60405180910390fd5b565b612433828260405180602001604052805f815250612d2a565b5050565b5f8061244283612d4d565b90505f73ffffffffffffffffffffffffffffffffffffffff168173ffffffffffffffffffffffffffffffffffffffff16036124b457826040517f7e2732890000000000000000000000000000000000000000000000000000000081526004016124ab9190613cd6565b60405180910390fd5b80915050919050565b5f60045f8381526020019081526020015f205f9054906101000a900473ffffffffffffffffffffffffffffffffffffffff169050919050565b5f33905090565b61250a8383836001612d86565b505050565b5f8061251c858585612f45565b90505f73ffffffffffffffffffffffffffffffffffffffff168173ffffffffffffffffffffffffffffffffffffffff160361255f5761255a84613150565b61259e565b8473ffffffffffffffffffffffffffffffffffffffff168173ffffffffffffffffffffffffffffffffffffffff161461259d5761259c8185613194565b5b5b5f73ffffffffffffffffffffffffffffffffffffffff168573ffffffffffffffffffffffffffffffffffffffff16036125df576125da8461326b565b61261e565b8473ffffffffffffffffffffffffffffffffffffffff168173ffffffffffffffffffffffffffffffffffffffff161461261d5761261c858561332b565b5b5b809150509392505050565b5f73ffffffffffffffffffffffffffffffffffffffff168273ffffffffffffffffffffffffffffffffffffffff1603612699575f6040517f64a0ae92000000000000000000000000000000000000000000000000000000008152600401612690919061390d565b60405180910390fd5b5f6126a583835f61250f565b90505f73ffffffffffffffffffffffffffffffffffffffff168173ffffffffffffffffffffffffffffffffffffffff160361271757816040517f7e27328900000000000000000000000000000000000000000000000000000000815260040161270e9190613cd6565b60405180910390fd5b8373ffffffffffffffffffffffffffffffffffffffff168173ffffffffffffffffffffffffffffffffffffffff161461278b578382826040517f64283d7b000000000000000000000000000000000000000000000000000000008152600401612782939291906147ea565b60405180910390fd5b50505050565b5f600a5f9054906101000a900473ffffffffffffffffffffffffffffffffffffffff16905081600a5f6101000a81548173ffffffffffffffffffffffffffffffffffffffff021916908373ffffffffffffffffffffffffffffffffffffffff1602179055508173ffffffffffffffffffffffffffffffffffffffff168173ffffffffffffffffffffffffffffffffffffffff167f8be0079c531659141344cd1fd0a4f28419497f9722a3daafe3b4186f6b6457e060405160405180910390a35050565b5f73ffffffffffffffffffffffffffffffffffffffff168273ffffffffffffffffffffffffffffffffffffffff16036128c457816040517f5b08ba180000000000000000000000000000000000000000000000000000000081526004016128bb919061390d565b60405180910390fd5b8060055f8573ffffffffffffffffffffffffffffffffffffffff1673ffffffffffffffffffffffffffffffffffffffff1681526020019081526020015f205f8473ffffffffffffffffffffffffffffffffffffffff1673ffffffffffffffffffffffffffffffffffffffff1681526020019081526020015f205f6101000a81548160ff0219169083151502179055508173ffffffffffffffffffffffffffffffffffffffff168373ffffffffffffffffffffffffffffffffffffffff167f17307eab39ab6107e8899845ad3d59bd9653f200f220920489ca2b5937696c31836040516129b091906139c0565b60405180910390a3505050565b5f8373ffffffffffffffffffffffffffffffffffffffff163b1115612b62578273ffffffffffffffffffffffffffffffffffffffff1663150b7a02868685856040518563ffffffff1660e01b8152600401612a1b9493929190614b17565b6020604051808303815f875af1925050508015612a5657506040513d601f19601f82011682018060405250810190612a539190614b75565b60015b612ad7573d805f8114612a84576040519150601f19603f3d011682016040523d82523d5f602084013e612a89565b606091505b505f815103612acf57836040517f64a0ae92000000000000000000000000000000000000000000000000000000008152600401612ac6919061390d565b60405180910390fd5b805181602001fd5b63150b7a0260e01b7bffffffffffffffffffffffffffffffffffffffffffffffffffffffff1916817bffffffffffffffffffffffffffffffffffffffffffffffffffffffff191614612b6057836040517f64a0ae92000000000000000000000000000000000000000000000000000000008152600401612b57919061390d565b60405180910390fd5b505b5050505050565b606060405180602001604052805f815250905090565b60605f6001612b8d846133af565b0190505f8167ffffffffffffffff811115612bab57612baa613a1b565b5b6040519080825280601f01601f191660200182016040528015612bdd5781602001600182028036833780820191505090505b5090505f82602001820190505b600115612c3e578080600190039150507f3031323334353637383961626364656600000000000000000000000000000000600a86061a8153600a8581612c3357612c32614ba0565b5b0494505f8503612bea575b819350505050919050565b5f7f80ac58cd000000000000000000000000000000000000000000000000000000007bffffffffffffffffffffffffffffffffffffffffffffffffffffffff1916827bffffffffffffffffffffffffffffffffffffffffffffffffffffffff19161480612d1357507f5b5e139f000000000000000000000000000000000000000000000000000000007bffffffffffffffffffffffffffffffffffffffffffffffffffffffff1916827bffffffffffffffffffffffffffffffffffffffffffffffffffffffff1916145b80612d235750612d2282613500565b5b9050919050565b612d348383613569565b612d48612d3f6124f6565b5f8585856129bd565b505050565b5f60025f8381526020019081526020015f205f9054906101000a900473ffffffffffffffffffffffffffffffffffffffff169050919050565b8080612dbe57505f73ffffffffffffffffffffffffffffffffffffffff168273ffffffffffffffffffffffffffffffffffffffff1614155b15612ef0575f612dcd84612437565b90505f73ffffffffffffffffffffffffffffffffffffffff168373ffffffffffffffffffffffffffffffffffffffff1614158015612e3757508273ffffffffffffffffffffffffffffffffffffffff168173ffffffffffffffffffffffffffffffffffffffff1614155b8015612e4a5750612e4881846120fe565b155b15612e8c57826040517fa9fbf51f000000000000000000000000000000000000000000000000000000008152600401612e83919061390d565b60405180910390fd5b8115612eee57838573ffffffffffffffffffffffffffffffffffffffff168273ffffffffffffffffffffffffffffffffffffffff167f8c5be1e5ebec7d5bd14f71427d1e84f3dd0314c0f7b2291e5b200ac8c7c3b92560405160405180910390a45b505b8360045f8581526020019081526020015f205f6101000a81548173ffffffffffffffffffffffffffffffffffffffff021916908373ffffffffffffffffffffffffffffffffffffffff16021790555050505050565b5f80612f5084612d4d565b90505f73ffffffffffffffffffffffffffffffffffffffff168373ffffffffffffffffffffffffffffffffffffffff1614612f9157612f9081848661365c565b5b5f73ffffffffffffffffffffffffffffffffffffffff168173ffffffffffffffffffffffffffffffffffffffff161461301c57612fd05f855f80612d86565b600160035f8373ffffffffffffffffffffffffffffffffffffffff1673ffffffffffffffffffffffffffffffffffffffff1681526020019081526020015f205f82825403925050819055505b5f73ffffffffffffffffffffffffffffffffffffffff168573ffffffffffffffffffffffffffffffffffffffff161461309b57600160035f8773ffffffffffffffffffffffffffffffffffffffff1673ffffffffffffffffffffffffffffffffffffffff1681526020019081526020015f205f82825401925050819055505b8460025f8681526020019081526020015f205f6101000a81548173ffffffffffffffffffffffffffffffffffffffff021916908373ffffffffffffffffffffffffffffffffffffffff160217905550838573ffffffffffffffffffffffffffffffffffffffff168273ffffffffffffffffffffffffffffffffffffffff167fddf252ad1be2c89b69c2b068fc378daa952ba7f163c4a11628f55a4df523b3ef60405160405180910390a4809150509392505050565b60088054905060095f8381526020019081526020015f2081905550600881908060018154018082558091505060019003905f5260205f20015f909190919091505550565b5f61319e8361157b565b90505f60075f8481526020019081526020015f205490505f60065f8673ffffffffffffffffffffffffffffffffffffffff1673ffffffffffffffffffffffffffffffffffffffff1681526020019081526020015f20905082821461323d575f815f8581526020019081526020015f2054905080825f8581526020019081526020015f20819055508260075f8381526020019081526020015f2081905550505b60075f8581526020019081526020015f205f9055805f8481526020019081526020015f205f90555050505050565b5f600160088054905061327e9190614bcd565b90505f60095f8481526020019081526020015f205490505f600883815481106132aa576132a96148ae565b5b905f5260205f200154905080600883815481106132ca576132c96148ae565b5b905f5260205f2001819055508160095f8381526020019081526020015f208190555060095f8581526020019081526020015f205f9055600880548061331257613311614c00565b5b600190038181905f5260205f20015f9055905550505050565b5f60016133378461157b565b6133419190614bcd565b90508160065f8573ffffffffffffffffffffffffffffffffffffffff1673ffffffffffffffffffffffffffffffffffffffff1681526020019081526020015f205f8381526020019081526020015f20819055508060075f8481526020019081526020015f2081905550505050565b5f805f90507a184f03e93ff9f4daa797ed6e38ed64bf6a1f010000000000000000831061340b577a184f03e93ff9f4daa797ed6e38ed64bf6a1f010000000000000000838161340157613400614ba0565b5b0492506040810190505b6d04ee2d6d415b85acef81000000008310613448576d04ee2d6d415b85acef8100000000838161343e5761343d614ba0565b5b0492506020810190505b662386f26fc10000831061347757662386f26fc10000838161346d5761346c614ba0565b5b0492506010810190505b6305f5e10083106134a0576305f5e100838161349657613495614ba0565b5b0492506008810190505b61271083106134c55761271083816134bb576134ba614ba0565b5b0492506004810190505b606483106134e857606483816134de576134dd614ba0565b5b0492506002810190505b600a83106134f7576001810190505b80915050919050565b5f7f01ffc9a7000000000000000000000000000000000000000000000000000000007bffffffffffffffffffffffffffffffffffffffffffffffffffffffff1916827bffffffffffffffffffffffffffffffffffffffffffffffffffffffff1916149050919050565b5f73ffffffffffffffffffffffffffffffffffffffff168273ffffffffffffffffffffffffffffffffffffffff16036135d9575f6040517f64a0ae920000000000000000000000000000000000000000000000000000000081526004016135d0919061390d565b60405180910390fd5b5f6135e583835f61250f565b90505f73ffffffffffffffffffffffffffffffffffffffff168173ffffffffffffffffffffffffffffffffffffffff1614613657575f6040517f73c6ac6e00000000000000000000000000000000000000000000000000000000815260040161364e919061390d565b60405180910390fd5b505050565b61366783838361371f565b61371a575f73ffffffffffffffffffffffffffffffffffffffff168373ffffffffffffffffffffffffffffffffffffffff16036136db57806040517f7e2732890000000000000000000000000000000000000000000000000000000081526004016136d29190613cd6565b60405180910390fd5b81816040517f177e802f000000000000000000000000000000000000000000000000000000008152600401613711929190614887565b60405180910390fd5b505050565b5f8073ffffffffffffffffffffffffffffffffffffffff168373ffffffffffffffffffffffffffffffffffffffff16141580156137d657508273ffffffffffffffffffffffffffffffffffffffff168473ffffffffffffffffffffffffffffffffffffffff161480613797575061379684846120fe565b5b806137d557508273ffffffffffffffffffffffffffffffffffffffff166137bd836124bd565b73ffffffffffffffffffffffffffffffffffffffff16145b5b90509392505050565b60405180608001604052805f73ffffffffffffffffffffffffffffffffffffffff1681526020015f81526020015f81526020015f151581525090565b604051806101000160405280606081526020016060815260200160608152602001606081526020015f81526020016060815260200160608152602001606081525090565b5f604051905090565b5f80fd5b5f80fd5b5f819050919050565b61388281613870565b811461388c575f80fd5b50565b5f8135905061389d81613879565b92915050565b5f602082840312156138b8576138b7613868565b5b5f6138c58482850161388f565b91505092915050565b5f73ffffffffffffffffffffffffffffffffffffffff82169050919050565b5f6138f7826138ce565b9050919050565b613907816138ed565b82525050565b5f6020820190506139205f8301846138fe565b92915050565b5f7fffffffff0000000000000000000000000000000000000000000000000000000082169050919050565b61395a81613926565b8114613964575f80fd5b50565b5f8135905061397581613951565b92915050565b5f602082840312156139905761398f613868565b5b5f61399d84828501613967565b91505092915050565b5f8115159050919050565b6139ba816139a6565b82525050565b5f6020820190506139d35f8301846139b1565b92915050565b6139e2816138ed565b81146139ec575f80fd5b50565b5f813590506139fd816139d9565b92915050565b5f80fd5b5f80fd5b5f601f19601f8301169050919050565b7f4e487b71000000000000000000000000000000000000000000000000000000005f52604160045260245ffd5b613a5182613a0b565b810181811067ffffffffffffffff82111715613a7057613a6f613a1b565b5b80604052505050565b5f613a8261385f565b9050613a8e8282613a48565b919050565b5f67ffffffffffffffff821115613aad57613aac613a1b565b5b613ab682613a0b565b9050602081019050919050565b828183375f83830152505050565b5f613ae3613ade84613a93565b613a79565b905082815260208101848484011115613aff57613afe613a07565b5b613b0a848285613ac3565b509392505050565b5f82601f830112613b2657613b25613a03565b5b8135613b36848260208601613ad1565b91505092915050565b5f805f805f805f805f6101208a8c031215613b5d57613b5c613868565b5b5f613b6a8c828d016139ef565b99505060208a013567ffffffffffffffff811115613b8b57613b8a61386c565b5b613b978c828d01613b12565b98505060408a013567ffffffffffffffff811115613bb857613bb761386c565b5b613bc48c828d01613b12565b97505060608a013567ffffffffffffffff811115613be557613be461386c565b5b613bf18c828d01613b12565b96505060808a013567ffffffffffffffff811115613c1257613c1161386c565b5b613c1e8c828d01613b12565b95505060a0613c2f8c828d0161388f565b94505060c08a013567ffffffffffffffff811115613c5057613c4f61386c565b5b613c5c8c828d01613b12565b93505060e08a013567ffffffffffffffff811115613c7d57613c7c61386c565b5b613c898c828d01613b12565b9250506101008a013567ffffffffffffffff811115613cab57613caa61386c565b5b613cb78c828d01613b12565b9150509295985092959850929598565b613cd081613870565b82525050565b5f602082019050613ce95f830184613cc7565b92915050565b5f81519050919050565b5f82825260208201905092915050565b5f5b83811015613d26578082015181840152602081019050613d0b565b5f8484015250505050565b5f613d3b82613cef565b613d458185613cf9565b9350613d55818560208601613d09565b613d5e81613a0b565b840191505092915050565b5f6020820190508181035f830152613d818184613d31565b905092915050565b5f8060408385031215613d9f57613d9e613868565b5b5f613dac858286016139ef565b9250506020613dbd8582860161388f565b9150509250929050565b5f60208284031215613ddc57613ddb613868565b5b5f82013567ffffffffffffffff811115613df957613df861386c565b5b613e0584828501613b12565b91505092915050565b5f805f60608486031215613e2557613e24613868565b5b5f613e32868287016139ef565b9350506020613e43868287016139ef565b9250506040613e548682870161388f565b9150509250925092565b5f610100820190508181035f830152613e77818b613d31565b90508181036020830152613e8b818a613d31565b90508181036040830152613e9f8189613d31565b90508181036060830152613eb38188613d31565b9050613ec26080830187613cc7565b81810360a0830152613ed48186613d31565b905081810360c0830152613ee88185613d31565b905081810360e0830152613efc8184613d31565b90509998505050505050505050565b5f60208284031215613f2057613f1f613868565b5b5f613f2d848285016139ef565b91505092915050565b613f3f816138ed565b82525050565b613f4e81613870565b82525050565b613f5d816139a6565b82525050565b608082015f820151613f775f850182613f36565b506020820151613f8a6020850182613f45565b506040820151613f9d6040850182613f45565b506060820151613fb06060850182613f54565b50505050565b5f608082019050613fc95f830184613f63565b92915050565b5f8060408385031215613fe557613fe4613868565b5b5f613ff28582860161388f565b9250506020614003858286016139ef565b9150509250929050565b614016816139a6565b8114614020575f80fd5b50565b5f813590506140318161400d565b92915050565b5f806040838503121561404d5761404c613868565b5b5f61405a858286016139ef565b925050602061406b85828601614023565b9150509250929050565b5f6080820190506140885f8301876138fe565b6140956020830186613cc7565b6140a26040830185613cc7565b6140af60608301846139b1565b95945050505050565b5f67ffffffffffffffff8211156140d2576140d1613a1b565b5b6140db82613a0b565b9050602081019050919050565b5f6140fa6140f5846140b8565b613a79565b90508281526020810184848401111561411657614115613a07565b5b614121848285613ac3565b509392505050565b5f82601f83011261413d5761413c613a03565b5b813561414d8482602086016140e8565b91505092915050565b5f805f806080858703121561416e5761416d613868565b5b5f61417b878288016139ef565b945050602061418c878288016139ef565b935050604061419d8782880161388f565b925050606085013567ffffffffffffffff8111156141be576141bd61386c565b5b6141ca87828801614129565b91505092959194509250565b5f805f80608085870312156141ee576141ed613868565b5b5f6141fb8782880161388f565b945050602061420c878288016139ef565b935050604061421d8782880161388f565b925050606061422e8782880161388f565b91505092959194509250565b5f80604083850312156142505761424f613868565b5b5f61425d8582860161388f565b925050602061426e8582860161388f565b9150509250929050565b5f82825260208201905092915050565b5f61429282613cef565b61429c8185614278565b93506142ac818560208601613d09565b6142b581613a0b565b840191505092915050565b5f61010083015f8301518482035f8601526142db8282614288565b915050602083015184820360208601526142f58282614288565b9150506040830151848203604086015261430f8282614288565b915050606083015184820360608601526143298282614288565b915050608083015161433e6080860182613f45565b5060a083015184820360a08601526143568282614288565b91505060c083015184820360c08601526143708282614288565b91505060e083015184820360e086015261438a8282614288565b9150508091505092915050565b5f6020820190508181035f8301526143af81846142c0565b905092915050565b5f80604083850312156143cd576143cc613868565b5b5f6143da858286016139ef565b92505060206143eb858286016139ef565b9150509250929050565b5f81905092915050565b5f61440982613cef565b61441381856143f5565b9350614423818560208601613d09565b80840191505092915050565b5f61443a82846143ff565b915081905092915050565b7f43617220616c72656164792072656769737465726564000000000000000000005f82015250565b5f614479601683613cf9565b915061448482614445565b602082019050919050565b5f6020820190508181035f8301526144a68161446d565b9050919050565b7f4e487b71000000000000000000000000000000000000000000000000000000005f52601160045260245ffd5b5f6144e482613870565b91507fffffffffffffffffffffffffffffffffffffffffffffffffffffffffffffffff8203614516576145156144ad565b5b600182019050919050565b7f4e487b71000000000000000000000000000000000000000000000000000000005f52602260045260245ffd5b5f600282049050600182168061456557607f821691505b60208210810361457857614577614521565b5b50919050565b5f819050815f5260205f209050919050565b5f6020601f8301049050919050565b5f82821b905092915050565b5f600883026145da7fffffffffffffffffffffffffffffffffffffffffffffffffffffffffffffffff8261459f565b6145e4868361459f565b95508019841693508086168417925050509392505050565b5f819050919050565b5f61461f61461a61461584613870565b6145fc565b613870565b9050919050565b5f819050919050565b61463883614605565b61464c61464482614626565b8484546145ab565b825550505050565b5f90565b614660614654565b61466b81848461462f565b505050565b5b8181101561468e576146835f82614658565b600181019050614671565b5050565b601f8211156146d3576146a48161457e565b6146ad84614590565b810160208510156146bc578190505b6146d06146c885614590565b830182614670565b50505b505050565b5f82821c905092915050565b5f6146f35f19846008026146d8565b1980831691505092915050565b5f61470b83836146e4565b9150826002028217905092915050565b61472482613cef565b67ffffffffffffffff81111561473d5761473c613a1b565b5b614747825461454e565b614752828285614692565b5f60209050601f831160018114614783575f8415614771578287015190505b61477b8582614700565b8655506147e2565b601f1984166147918661457e565b5f5b828110156147b857848901518255600182019150602085019450602081019050614793565b868310156147d557848901516147d1601f8916826146e4565b8355505b6001600288020188555050505b505050505050565b5f6060820190506147fd5f8301866138fe565b61480a6020830185613cc7565b61481760408301846138fe565b949350505050565b7f4e6f742070726f706f73656420746f20796f75000000000000000000000000005f82015250565b5f614853601383613cf9565b915061485e8261481f565b602082019050919050565b5f6020820190508181035f83015261488081614847565b9050919050565b5f60408201905061489a5f8301856138fe565b6148a76020830184613cc7565b9392505050565b7f4e487b71000000000000000000000000000000000000000000000000000000005f52603260045260245ffd5b7f4e6f7420666f722073616c6500000000000000000000000000000000000000005f82015250565b5f61490f600c83613cf9565b915061491a826148db565b602082019050919050565b5f6020820190508181035f83015261493c81614903565b9050919050565b7f496e73756666696369656e74207061796d656e740000000000000000000000005f82015250565b5f614977601483613cf9565b915061498282614943565b602082019050919050565b5f6020820190508181035f8301526149a48161496b565b9050919050565b7f4e6f74206f776e657200000000000000000000000000000000000000000000005f82015250565b5f6149df600983613cf9565b91506149ea826149ab565b602082019050919050565b5f6020820190508181035f830152614a0c816149d3565b9050919050565b5f614a1e82856143ff565b9150614a2a82846143ff565b91508190509392505050565b5f604082019050614a495f830185613cc7565b614a566020830184613cc7565b9392505050565b7f496e76616c6964207072696365000000000000000000000000000000000000005f82015250565b5f614a91600d83613cf9565b9150614a9c82614a5d565b602082019050919050565b5f6020820190508181035f830152614abe81614a85565b9050919050565b5f81519050919050565b5f82825260208201905092915050565b5f614ae982614ac5565b614af38185614acf565b9350614b03818560208601613d09565b614b0c81613a0b565b840191505092915050565b5f608082019050614b2a5f8301876138fe565b614b3760208301866138fe565b614b446040830185613cc7565b8181036060830152614b568184614adf565b905095945050505050565b5f81519050614b6f81613951565b92915050565b5f60208284031215614b8a57614b89613868565b5b5f614b9784828501614b61565b91505092915050565b7f4e487b71000000000000000000000000000000000000000000000000000000005f52601260045260245ffd5b5f614bd782613870565b9150614be283613870565b9250828203905081811115614bfa57614bf96144ad565b5b92915050565b7f4e487b71000000000000000000000000000000000000000000000000000000005f52603160045260245ffdfea26469706673582212200b5f3e055d23b6aebcff9328e9937fc64b2290ed65926cdf5632fc022db1905564736f6c63430008140033",
  "immutableReferences": {},
  "source": "// SPDX-License-Identifier: MIT\npragma solidity ^0.8.20;\n\n// OpenZeppelin 5.x  import\nimport \"@openzeppelin/contracts/token/ERC721/extensions/ERC721Enumerable.sol\";\nimport \"@openzeppelin/contracts/access/Ownable.sol\";\n\n/// @title FullCarNFT -  , , ,    NFT  \ncontract FullCarNFT is ERC721Enumerable, Ownable {\n    uint256 private _tokenIds;\n\n    struct CarInfo {\n        string carNumber;\n        string manufactureDate;\n        string model;\n        string fuel;\n        uint256 engineCC;\n        string color;\n        string warranty;\n        string metadataURI; // IPFS URI\n    }\n\n    struct Insurance {\n        address provider;\n        uint256 premium;\n        uint256 expiry;\n        bool active;\n    }\n\n    mapping(uint256 => CarInfo) public carInfos;\n    mapping(string => bool) public registeredCarNumbers;\n\n    mapping(uint256 => address) public transferProposals;\n    mapping(uint256 => uint256) public carPrices;\n\n    mapping(uint256 => address) public collateralOwners;\n    mapping(uint256 => uint256) public loanAmounts;\n\n    mapping(uint256 => Insurance) public insurancePolicies;\n\n    event CarNFTMinted(uint256 indexed tokenId, address indexed owner);\n    event TransferProposed(uint256 indexed tokenId, address indexed to);\n    event TransferAccepted(uint256 indexed tokenId, address indexed from, address indexed to);\n    event CarListed(uint256 indexed tokenId, uint256 price);\n    event CarSold(uint256 indexed tokenId, address indexed buyer, uint256 price);\n    event CollateralLocked(uint256 indexed tokenId, address indexed owner, uint256 loanAmount);\n    event InsuranceLinked(uint256 indexed tokenId, address indexed provider, uint256 premium, uint256 expiry);\n\n    /// @notice    \n    constructor(address initialOwner)\n        ERC721(\"FullCarNFT\", \"CARX\")\n        Ownable(initialOwner)\n    {}\n\n    /// @notice    NFT  (onlyOwner)\n    function registerCar(\n        address recipient,\n        string memory carNumber,\n        string memory manufactureDate,\n        string memory model,\n        string memory fuel,\n        uint256 engineCC,\n        string memory color,\n        string memory warranty,\n        string memory metadataURI\n    ) public onlyOwner returns (uint256) {\n        require(!registeredCarNumbers[carNumber], \"Car already registered\");\n\n        _tokenIds++;\n        uint256 tokenId = _tokenIds;\n        _safeMint(recipient, tokenId);\n\n        carInfos[tokenId] = CarInfo(\n            carNumber,\n            manufactureDate,\n            model,\n            fuel,\n            engineCC,\n            color,\n            warranty,\n            metadataURI\n        );\n\n        registeredCarNumbers[carNumber] = true;\n\n        emit CarNFTMinted(tokenId, recipient);\n        return tokenId;\n    }\n\n    /// @notice   \n    function getCarInfo(uint256 tokenId) public view returns (CarInfo memory) {\n        ownerOf(tokenId); //  \n        return carInfos[tokenId];\n    }\n\n    /// @notice NFT  \n    function listCarForSale(uint256 tokenId, uint256 price) public {\n        require(ownerOf(tokenId) == msg.sender, \"Not owner\");\n        require(price > 0, \"Invalid price\");\n\n        carPrices[tokenId] = price;\n        emit CarListed(tokenId, price);\n    }\n\n    /// @notice NFT  \n    function buyCar(uint256 tokenId) public payable {\n        uint256 price = carPrices[tokenId];\n        require(price > 0, \"Not for sale\");\n        require(msg.value >= price, \"Insufficient payment\");\n\n        address seller = ownerOf(tokenId);\n        _transfer(seller, msg.sender, tokenId);\n\n        payable(seller).transfer(price);\n        delete carPrices[tokenId];\n\n        emit CarSold(tokenId, msg.sender, price);\n    }\n\n    /// @notice   \n    function proposeTransfer(uint256 tokenId, address to) public {\n        require(ownerOf(tokenId) == msg.sender, \"Not owner\");\n        transferProposals[tokenId] = to;\n\n        emit TransferProposed(tokenId, to);\n    }\n\n    /// @notice    \n    function acceptTransfer(uint256 tokenId) public {\n        require(transferProposals[tokenId] == msg.sender, \"Not proposed to you\");\n\n        address from = ownerOf(tokenId);\n        _transfer(from, msg.sender, tokenId);\n        delete transferProposals[tokenId];\n\n        emit TransferAccepted(tokenId, from, msg.sender);\n    }\n\n    /// @notice NFT  \n    function lockAsCollateral(uint256 tokenId, uint256 loanAmount) public {\n        require(ownerOf(tokenId) == msg.sender, \"Not owner\");\n\n        _transfer(msg.sender, address(this), tokenId); // \n        collateralOwners[tokenId] = msg.sender;\n        loanAmounts[tokenId] = loanAmount;\n\n        emit CollateralLocked(tokenId, msg.sender, loanAmount);\n    }\n\n    /// @notice  \n    function linkInsurance(uint256 tokenId, address provider, uint256 premium, uint256 expiry) public {\n        require(ownerOf(tokenId) == msg.sender, \"Not owner\");\n\n        insurancePolicies[tokenId] = Insurance(provider, premium, expiry, true);\n\n        emit InsuranceLinked(tokenId, provider, premium, expiry);\n    }\n\n    /// @notice  \n    function getInsurance(uint256 tokenId) public view returns (Insurance memory) {\n        ownerOf(tokenId); //  \n        return insurancePolicies[tokenId];\n    }\n\n    /// @notice   \n    function isForSale(uint256 tokenId) public view returns (bool) {\n        return carPrices[tokenId] > 0;\n    }\n\n    /// @notice   \n    function supportsInterface(bytes4 interfaceId)\n        public\n        view\n        override(ERC721Enumerable)\n        returns (bool)\n    {\n        return super.supportsInterface(interfaceId);\n    }\n}",
  "sourcePath": "/Users/user/Desktop/xrpl2025/car_node/contracts/FullCarNFT.sol",
  "compiler": {
    "name": "solc",
    "version": "0.8.20+commit.a1b79de6.Emscripten.clang"
  },
  "schemaVersion": "3.4.16",
  "updatedAt": "2025-03-22T21:49:16.810Z",
  "networkType": "ethereum",
  "devdoc": {
    "errors": {
      "ERC721EnumerableForbiddenBatchMint()": [
        {
          "details": "Batch mint is not allowed."
        }
      ],
      "ERC721IncorrectOwner(address,uint256,address)": [
        {
          "details": "Indicates an error related to the ownership over a particular token. Used in transfers.",
          "params": {
            "owner": "Address of the current owner of a token.",
            "sender": "Address whose tokens are being transferred.",
            "tokenId": "Identifier number of a token."
          }
        }
      ],
      "ERC721InsufficientApproval(address,uint256)": [
        {
          "details": "Indicates a failure with the `operator`s approval. Used in transfers.",
          "params": {
            "operator": "Address that may be allowed to operate on tokens without being their owner.",
            "tokenId": "Identifier number of a token."
          }
        }
      ],
      "ERC721InvalidApprover(address)": [
        {
          "details": "Indicates a failure with the `approver` of a token to be approved. Used in approvals.",
          "params": {
            "approver": "Address initiating an approval operation."
          }
        }
      ],
      "ERC721InvalidOperator(address)": [
        {
          "details": "Indicates a failure with the `operator` to be approved. Used in approvals.",
          "params": {
            "operator": "Address that may be allowed to operate on tokens without being their owner."
          }
        }
      ],
      "ERC721InvalidOwner(address)": [
        {
          "details": "Indicates that an address can't be an owner. For example, `address(0)` is a forbidden owner in ERC-20. Used in balance queries.",
          "params": {
            "owner": "Address of the current owner of a token."
          }
        }
      ],
      "ERC721InvalidReceiver(address)": [
        {
          "details": "Indicates a failure with the token `receiver`. Used in transfers.",
          "params": {
            "receiver": "Address to which tokens are being transferred."
          }
        }
      ],
      "ERC721InvalidSender(address)": [
        {
          "details": "Indicates a failure with the token `sender`. Used in transfers.",
          "params": {
            "sender": "Address whose tokens are being transferred."
          }
        }
      ],
      "ERC721NonexistentToken(uint256)": [
        {
          "details": "Indicates a `tokenId` whose `owner` is the zero address.",
          "params": {
            "tokenId": "Identifier number of a token."
          }
        }
      ],
      "ERC721OutOfBoundsIndex(address,uint256)": [
        {
          "details": "An `owner`'s token query was out of bounds for `index`. NOTE: The owner being `address(0)` indicates a global out of bounds index."
        }
      ],
      "OwnableInvalidOwner(address)": [
        {
          "details": "The owner is not a valid owner account. (eg. `address(0)`)"
        }
      ],
      "OwnableUnauthorizedAccount(address)": [
        {
          "details": "The caller account is not authorized to perform an operation."
        }
      ]
    },
    "events": {
      "Approval(address,address,uint256)": {
        "details": "Emitted when `owner` enables `approved` to manage the `tokenId` token."
      },
      "ApprovalForAll(address,address,bool)": {
        "details": "Emitted when `owner` enables or disables (`approved`) `operator` to manage all of its assets."
      },
      "Transfer(address,address,uint256)": {
        "details": "Emitted when `tokenId` token is transferred from `from` to `to`."
      }
    },
    "kind": "dev",
    "methods": {
      "approve(address,uint256)": {
        "details": "See {IERC721-approve}."
      },
      "balanceOf(address)": {
        "details": "See {IERC721-balanceOf}."
      },
      "getApproved(uint256)": {
        "details": "See {IERC721-getApproved}."
      },
      "isApprovedForAll(address,address)": {
        "details": "See {IERC721-isApprovedForAll}."
      },
      "name()": {
        "details": "See {IERC721Metadata-name}."
      },
      "owner()": {
        "details": "Returns the address of the current owner."
      },
      "ownerOf(uint256)": {
        "details": "See {IERC721-ownerOf}."
      },
      "renounceOwnership()": {
        "details": "Leaves the contract without owner. It will not be possible to call `onlyOwner` functions. Can only be called by the current owner. NOTE: Renouncing ownership will leave the contract without an owner, thereby disabling any functionality that is only available to the owner."
      },
      "safeTransferFrom(address,address,uint256)": {
        "details": "See {IERC721-safeTransferFrom}."
      },
      "safeTransferFrom(address,address,uint256,bytes)": {
        "details": "See {IERC721-safeTransferFrom}."
      },
      "setApprovalForAll(address,bool)": {
        "details": "See {IERC721-setApprovalForAll}."
      },
      "symbol()": {
        "details": "See {IERC721Metadata-symbol}."
      },
      "tokenByIndex(uint256)": {
        "details": "See {IERC721Enumerable-tokenByIndex}."
      },
      "tokenOfOwnerByIndex(address,uint256)": {
        "details": "See {IERC721Enumerable-tokenOfOwnerByIndex}."
      },
      "tokenURI(uint256)": {
        "details": "See {IERC721Metadata-tokenURI}."
      },
      "totalSupply()": {
        "details": "See {IERC721Enumerable-totalSupply}."
      },
      "transferFrom(address,address,uint256)": {
        "details": "See {IERC721-transferFrom}."
      },
      "transferOwnership(address)": {
        "details": "Transfers ownership of the contract to a new account (`newOwner`). Can only be called by the current owner."
      }
    },
    "title": "FullCarNFT -  , , ,    NFT  ",
    "version": 1
  },
  "userdoc": {
    "kind": "user",
    "methods": {
      "acceptTransfer(uint256)": {
        "notice": "   "
      },
      "buyCar(uint256)": {
        "notice": "NFT  "
      },
      "constructor": {
        "notice": "   "
      },
      "getCarInfo(uint256)": {
        "notice": "  "
      },
      "getInsurance(uint256)": {
        "notice": " "
      },
      "isForSale(uint256)": {
        "notice": "  "
      },
      "linkInsurance(uint256,address,uint256,uint256)": {
        "notice": " "
      },
      "listCarForSale(uint256,uint256)": {
        "notice": "NFT  "
      },
      "lockAsCollateral(uint256,uint256)": {
        "notice": "NFT  "
      },
      "proposeTransfer(uint256,address)": {
        "notice": "  "
      },
      "registerCar(address,string,string,string,string,uint256,string,string,string)": {
        "notice": "   NFT  (onlyOwner)"
      },
      "supportsInterface(bytes4)": {
        "notice": "  "
      }
    },
    "version": 1
  }
}